{
  "contractName": "VotingSystem",
  "abi": [
    {
      "anonymous": false,
      "inputs": [
        {
          "indexed": false,
          "internalType": "string",
          "name": "voterUniqueId",
          "type": "string"
        },
        {
          "indexed": false,
          "internalType": "uint256",
          "name": "candidateId",
          "type": "uint256"
        },
        {
          "indexed": false,
          "internalType": "uint256",
          "name": "timestamp",
          "type": "uint256"
        }
      ],
      "name": "VoteCast",
      "type": "event"
    },
    {
      "inputs": [
        {
          "internalType": "string",
          "name": "",
          "type": "string"
        }
      ],
      "name": "hasVoted",
      "outputs": [
        {
          "internalType": "bool",
          "name": "",
          "type": "bool"
        }
      ],
      "stateMutability": "view",
      "type": "function",
      "constant": true
    },
    {
      "inputs": [
        {
          "internalType": "uint256",
          "name": "",
          "type": "uint256"
        }
      ],
      "name": "votes",
      "outputs": [
        {
          "internalType": "string",
          "name": "voterUniqueId",
          "type": "string"
        },
        {
          "internalType": "uint256",
          "name": "candidateId",
          "type": "uint256"
        },
        {
          "internalType": "uint256",
          "name": "timestamp",
          "type": "uint256"
        }
      ],
      "stateMutability": "view",
      "type": "function",
      "constant": true
    },
    {
      "inputs": [
        {
          "internalType": "string",
          "name": "_voterUniqueId",
          "type": "string"
        },
        {
          "internalType": "uint256",
          "name": "_candidateId",
          "type": "uint256"
        }
      ],
      "name": "castVote",
      "outputs": [],
      "stateMutability": "nonpayable",
      "type": "function"
    },
    {
      "inputs": [],
      "name": "getTotalVotes",
      "outputs": [
        {
          "internalType": "uint256",
          "name": "",
          "type": "uint256"
        }
      ],
      "stateMutability": "view",
      "type": "function",
      "constant": true
    }
  ],
  "bytecode": "0x608060405234801561001057600080fd5b5061086a806100206000396000f3fe608060405234801561001057600080fd5b506004361061004c5760003560e01c806339bfeae3146100515780635df81330146100815780639a0e7d66146100b3578063e3b9e2fa146100d1575b600080fd5b61006b6004803603810190610066919061046b565b6100ed565b6040516100789190610608565b60405180910390f35b61009b60048036038101906100969190610500565b610123565b6040516100aa93929190610623565b60405180910390f35b6100bb6101e5565b6040516100c89190610681565b60405180910390f35b6100eb60048036038101906100e691906104ac565b6101f1565b005b6001818051602081018201805184825260208301602085012081835280955050505050506000915054906101000a900460ff1681565b6000818154811061013357600080fd5b90600052602060002090600302016000915090508060000180546101569061077c565b80601f01602080910402602001604051908101604052809291908181526020018280546101829061077c565b80156101cf5780601f106101a4576101008083540402835291602001916101cf565b820191906000526020600020905b8154815290600101906020018083116101b257829003601f168201915b5050505050908060010154908060020154905083565b60008080549050905090565b60018260405161020191906105f1565b908152602001604051809103902060009054906101000a900460ff161561025d576040517f08c379a000000000000000000000000000000000000000000000000000000000815260040161025490610661565b60405180910390fd5b6000604051806060016040528084815260200183815260200142815250908060018154018082558091505060019003906000526020600020906003020160009091909190915060008201518160000190805190602001906102bf92919061034b565b5060208201518160010155604082015181600201555050600180836040516102e791906105f1565b908152602001604051809103902060006101000a81548160ff0219169083151502179055507fd0de2208ecba921aeb61118323ba6f9adb7b6f2c3cc88448e4bceca97de5601482824260405161033f93929190610623565b60405180910390a15050565b8280546103579061077c565b90600052602060002090601f01602090048101928261037957600085556103c0565b82601f1061039257805160ff19168380011785556103c0565b828001600101855582156103c0579182015b828111156103bf5782518255916020019190600101906103a4565b5b5090506103cd91906103d1565b5090565b5b808211156103ea5760008160009055506001016103d2565b5090565b60006104016103fc846106cd565b61069c565b90508281526020810184848401111561041957600080fd5b61042484828561073a565b509392505050565b600082601f83011261043d57600080fd5b813561044d8482602086016103ee565b91505092915050565b6000813590506104658161081d565b92915050565b60006020828403121561047d57600080fd5b600082013567ffffffffffffffff81111561049757600080fd5b6104a38482850161042c565b91505092915050565b600080604083850312156104bf57600080fd5b600083013567ffffffffffffffff8111156104d957600080fd5b6104e58582860161042c565b92505060206104f685828601610456565b9150509250929050565b60006020828403121561051257600080fd5b600061052084828501610456565b91505092915050565b61053281610724565b82525050565b6000610543826106fd565b61054d8185610708565b935061055d818560208601610749565b6105668161080c565b840191505092915050565b600061057c826106fd565b6105868185610719565b9350610596818560208601610749565b80840191505092915050565b60006105af601683610708565b91507f596f75206861766520616c726561647920766f746564000000000000000000006000830152602082019050919050565b6105eb81610730565b82525050565b60006105fd8284610571565b915081905092915050565b600060208201905061061d6000830184610529565b92915050565b6000606082019050818103600083015261063d8186610538565b905061064c60208301856105e2565b61065960408301846105e2565b949350505050565b6000602082019050818103600083015261067a816105a2565b9050919050565b600060208201905061069660008301846105e2565b92915050565b6000604051905081810181811067ffffffffffffffff821117156106c3576106c26107dd565b5b8060405250919050565b600067ffffffffffffffff8211156106e8576106e76107dd565b5b601f19601f8301169050602081019050919050565b600081519050919050565b600082825260208201905092915050565b600081905092915050565b60008115159050919050565b6000819050919050565b82818337600083830152505050565b60005b8381101561076757808201518184015260208101905061074c565b83811115610776576000848401525b50505050565b6000600282049050600182168061079457607f821691505b602082108114156107a8576107a76107ae565b5b50919050565b7f4e487b7100000000000000000000000000000000000000000000000000000000600052602260045260246000fd5b7f4e487b7100000000000000000000000000000000000000000000000000000000600052604160045260246000fd5b6000601f19601f8301169050919050565b61082681610730565b811461083157600080fd5b5056fea264697066735822122008590d744816e860c525d5cf1830c1122f96be4fec69a8398ddd46f0112c85c964736f6c63430008000033",
  "immutableReferences": {},
  "source": "// SPDX-License-Identifier: MIT\r\npragma solidity ^0.8.0;\r\n\r\ncontract VotingSystem {\r\n    struct Vote {\r\n        string voterUniqueId;\r\n        uint256 candidateId;\r\n        uint256 timestamp;\r\n    }\r\n    \r\n    Vote[] public votes;\r\n    mapping(string => bool) public hasVoted;\r\n    \r\n    event VoteCast(string voterUniqueId, uint256 candidateId, uint256 timestamp);\r\n    \r\n    function castVote(string memory _voterUniqueId, uint256 _candidateId) public {\r\n        require(!hasVoted[_voterUniqueId], \"You have already voted\");\r\n        \r\n        votes.push(Vote({\r\n            voterUniqueId: _voterUniqueId,\r\n            candidateId: _candidateId,\r\n            timestamp: block.timestamp\r\n        }));\r\n        \r\n        hasVoted[_voterUniqueId] = true;\r\n        emit VoteCast(_voterUniqueId, _candidateId, block.timestamp);\r\n    }\r\n    \r\n    function getTotalVotes() public view returns (uint256) {\r\n        return votes.length;\r\n    }\r\n}\r\n",
  "sourcePath": "C:\\Users\\karth\\OneDrive\\Desktop\\90% done\\blockchain\\contracts\\VotingSystem.sol",
  "compiler": {
    "name": "solc",
    "version": "0.8.0+commit.c7dfd78e.Emscripten.clang"
  },
  "schemaVersion": "3.4.16",
  "updatedAt": "2025-02-05T15:14:50.082Z",
  "networkType": "ethereum",
  "devdoc": {
    "kind": "dev",
    "methods": {},
    "version": 1
  },
  "userdoc": {
    "kind": "user",
    "methods": {},
    "version": 1
  }
}